:10017200D2BBBCB6BFDAC1EEA3BAD0A1BDDC0D0AB8
:1001820000B6FEBCB6BFDAC1EEA3BA31A1A2B4FA80
:10019200C2EBB2E2CAD40D0A000932A1A2BFAAB7C9
:1001A200A2B0E5D1E9D6A40D0A000933A1A2BFAAE3
:1001B200B5C60D0A000934A1A2B9D8B5C60D0A0008
:1001C200202035A1A2B1B1BEA90D0A000936A1A213
:1001D200C9CFBAA30D0A000937A1A2B9E3D6DD0D32
:1001E2000A00CAD5B5BD0D0A00A1B0B4FAC2EBB27D
:1001F200E2CAD4A1B1C3FCC1EECAB6B1F0B3C9B967
:10020200A60D0A00A1B0BFAAB7A2B0E5D1E9D6A453
:10021200A1B1C3FCC1EECAB6B1F0B3C9B9A60D0A09
:1002220000A1B0BFAAB5C6A1B1C3FCC1EECAB6B1A6
:10023200F0B3C9B9A60D0A00A1B0B9D8B5C6A1B12B
:10024200C3FCC1EECAB6B1F0B3C9B9A60D0A00A18A
:10025200B0B1B1BEA9A1B1C3FCC1EECAB6B1F0B38F
:10026200C9B9A60D0A00A1B0C9CFBAA3A1B1C3FCF6
:10027200C1EECAB6B1F0B3C9B9A60D0A00A1B0B9B0
:10028200E3D6DDA1B1C3FCC1EECAB6B1F0B3C9B9C0
:10029200A60D0A00C7EBD6D8D0C2CAB6B1F0B7A233
:1002A200BFDAC1EE0D0A00C7EBCBB5B3F6D2BBBCC9
:0802B200B6BFDAC1EE0D0A002F
:0709F700010800410013009C
:10054F00E4900001F01200061209BE12088B120986
:10055F0070E47808F67BFF7A01797212093D7BFF10
:10056F007A01798312093D7BFF7A01799B12093D4C
:10057F007BFF7A0179AC12093D7BFF7A0179B712C3
:10058F00093D7BFF7A0179C212093D7BFF7A017920
:10059F00CE12093D7BFF7A0179D912093D7808E621
:1005AF001460FA24F1601824DF60F224317020788F
:1005BF000876011207EBEF70E47808763180DE12CF
:1005CF000A25780AEFF6120703E47808F680CEE4DE
:0505DF007808F680C859
:10000600B2C21209EAB2C21209EAB2C21209EAB2CD
:0C001600C21209EAB2C21209EAB2C22208
:1009BE007580FF7590FF75A0FF75B0FF75C0FF7550
:0E09CE0092FFE4F591C2C3D289D2A8D2AF2223
:0A0A040000007F057E49DEFEDFFCE6
:010A0E0022C5
:0609990090000912009815
:10099F00E490000DF0A3F0A3F0A3F090000974FF12
:0E09AF00120065EC4D4E4F6005120A0480EDFB
:0109BD002217
:0C09EA007F117ED07D1BDDFEDEFCDFFAFD
:0109F60022DE
:10070300900002EFF0700F90001304F0C2C27BFF61
:100713007A0179E4806F900013E064017061F0D294
:10072300C2900002E024FE601E24FE6022146027B3
:1007330024EF602B14603024E86034242E70387B5F
:10074300FF7A0179EB803E7BFF7A02790680367B64
:10075300FF7A027923802E7BFF7A02793A80267B07
:10076300FF7A027951801E7BFF7A02796880167BBB
:10077300FF7A02797F800E7BFF7A02799680067B6F
:09078300FF7A0279A912093D2256
:030003000208CC24
:1008CC00C0E0C0F0C083C082C0D075D000C000C0F2
:1008DC0001C002C003C004C005C006C0071204B8A2
:1008EC00D007D006D005D004D003D002D001D00060
:0B08FC00D0D0D082D083D0F0D0E0320A
:100374007869616F206A6965000000000000000070
:10038400000000006B61692066612062616E207963
:10039400616E207A68656E67646169206D612063AF
:1003A4006520736869000000000000006B6169202B
:1003B40064656E670000000000000000000000009B
:1003C4006775616E2064656E6700000000000000C0
:1003D40000000000626569206A696E670000000021
:1003E40000000000000000007368616E672068610F
:1003F4006900000000000000000000006775616EE5
:1004040067207A686F75000000000000000000009B
:08041400000201040516172F78
:10088B00D2B57F057E007D007C00120999C2B57F31
:10089B00057E007D007C00120999D2B57F057E0094
:1008AB007D007C00120999C2A17F057E007D007C32
:1008BB0000120999D2A17F057E007D007C00020900
:0108CB009993
:10041C007F06120A1A7D357F17120A0F7F0A7E009B
:10042C007D007C001209997F06120A1A7D037F89D0
:10043C00120A0F7F057E007D007C001209997D4316
:10044C007FCF120A0F7F057E007D007C0012099978
:10045C007D027FCB120A0F7D0A7F11120A0FE4FD79
:10046C007F1E120A0F7D3F7F19120A0F7D487F1BDA
:10047C00120A0F7D1F7F1D120A0F7F0A7E007D005E
:10048C007C001209997D047FCD120A0F7F057E0036
:10049C007D007C00120999E4FD7FB9120A0F7D4F93
:0C04AC007FCF120A0F7DFF7F6F020A0F46
:10078C0012041CE4FD7FBD120A0F7D487F17120A6C
:10079C000F7F0A7E007D007C001209997D807F3CD2
:1007AC00120A0F7D077F3E120A0F7DFF7F38120A57
:1007BC000F7D077F3A120A0FE4FD7F40120A0F7D6E
:1007CC00087F42120A0FE4FD7F44120A0F7D087F56
:0F07DC0046120A0F7F017E007D007C0002099902
:1004B800E4900000F0C2A87F2B120A1A7809A60758
:1004C800E4FD7F29120A0FE4FD7F02120A0F780962
:1004D800E630E42D7FB2120A1AEF642170237FBF41
:1004E800120A1ABF351B7FBA120A1A900000EFF0E1
:1004F800D39400400CE0D39404500678087610801A
:100508000478087611E4FD7F2B120A0FE4FD7F1CA6
:10051800120A0FE4FD7F29120A0FE4FD7F02120A76
:100528000FE4FD7F2B120A0FE4FD7FBA120A0FE4D5
:10053800FD7FBC120A0F7D017F08120A0FE4FD7FC0
:0605480008120A0FD2A800
:01054E00228A
:1007EB00E4900002F0A3F0900002F0120A2B7F328B
:1007FB007E007D007C001209991202BAEF70028014
:10080B00117F0A7E007D007C001209991205E4EF2E
:10081B00701012088B7F327E007D007C00120999CC
:10082B0080089000037401F0800C900002E004F04B
:0B083B00E0C3940540B5900003E0FF0F
:01084600228F
:10090700E4900008F0900007F07FB2120A1ABF21A6
:10091700089000087401F080177F0A7E007D007C34
:1009270000120999900007E004F0E0C3940A40D947
:05093700900008E0FF44
:01093C002298
:030A2B0002078C33
:1005E400C2A87D557F35120A0F7D097F1C120A0FA0
:1005F4007D207FBD120A0F7D017F08120A0F7F0143
:100604007E007D007C00120999E4FD7F08120A0F28
:100614007F017E007D007C00120999120907EF70AA
:1006240002FF227D0B7F1C120A0F7DFF7FB2120A8C
:100634000F7F017E007D007C001209997D067F37C3
:10064400120A0F7F017E007D007C001209997D064D
:100654007F37120A0F7F057E007D007C0012099906
:100664007D107F29120A0FE4FD7FBD120A0FD2A864
:030674007F0122E1
:1002BA009000057401F0E4900004F0120907EF7051
:1002CA0007900005F002036E900004E09004149376
:1002DA00FD7FC1120A0FE4FD7FC3120A0F7D047F5E
:1002EA0008120A0F7F017E007D007C00120999E442
:1002FA00FD7F08120A0F7F017E007D007C00120933
:10030A0099E4900006F0900006E0FFC39414502D83
:10031A00900004E075F014A42474F582E43403F523
:10032A0083E5822FF582E43583F583E493FD600D3E
:10033A007F05120A0F900006E004F080C9900006BB
:10034A00E0FD7FB9120A0F7DFF7FB2120A0F7D040A
:10035A007F37120A0F900004E004F0E0C3940850BB
:09036A00030202C5900005E0FF4A
:010373002267
:060A25007FC5120A1A222F
:0B0A0F00908100EFF0908000EDF022DD
:0B0A1A00908100EFF0908000E0FF22D0
:0509FE004200112580FC
:10097000759850758920900011E0FEA3E0FBAA064F
:10098000E4F9F8FF7EE1FDFC1208471200558F8B59
:090990008F8DD28ED2ACD2AF22C1
:03002300020022B6
:0100220032AB
:0E09DC00C2ACC2998F993099FDC299D2AC225B
:10093D00900003EBF0A3EAF0A3E9F0900003E0FBD5
:10094D00A3E0FAA3E0F91200266017900003A3E4D8
:10095D0075F00112003FA9F0FA120026FF1209DC12
:03096D0080D9220C
:030000000206777E
:0C067700787FE4F6D8FD75810A0206BE0B
:10002600BB010689828A83E0225002E722BBFE02D8
:09003600E32289828A83E493220B
:10003F00A3F8E0C5F025F0F0E58215827002158374
:06004F00E0C838F0E822D1
:10084700C2D5E830E70FB2D5E4C39BFBE49AFAE4DC
:1008570099F9E498F8EC30E717B2D512087D120041
:10086700E0E4C39BFBE49AFAE499F9E498F880037F
:100877001200E030D50DE4C39FFFE49EFEE49DFD2A
:04088700E49CFC22CF
:0E005500C3E49FFFE49EFEE49DFDE49CFC22BC
:100063007401FF3395E0FEFDFCA3A3A3E0CF2FF0C3
:10007300E582158270021583E0CE3EF0E58215829B
:1000830070021583E0CD3DF0E58215827002158381
:05009300E0CC3CF0226E
:0C009800ECF0A3EDF0A3EEF0A3EFF022DB
:1006830002054FE493A3F8E493A34003F68001F239
:1006930008DFF48029E493A3F85407240CC8C33378
:1006A300C4540F4420C8834004F456800146F6DF47
:1006B300E4800B01020408102040809009F7E47ED7
:1006C300019360BCA3FF543F30E509541FFEE4933C
:1006D300A360010ECF54C025E060A840B8E493A303
:1006E300FAE493A3F8E493A3C8C582C8CAC583CA2E
:1006F300F0A3C8C582C8CAC583CADFE9DEE780BEE6
:010A030000F2
:1000A40075F008758200EF2FFFEE33FECD33CDCC13
:1000B40033CCC58233C5829BED9AEC99E582984096
:1000C4000CF582EE9BFEED9AFDEC99FC0FD5F0D673
:1000D400E4CEFBE4CDFAE4CCF9A88222B800C1B99D
:1000E4000059BA002DEC8BF084CFCECDFCE5F0CBDB
:1000F400F97818EF2FFFEE33FEED33FDEC33FCEB14
:1001040033FB10D703994004EB99FB0FD8E5E4F9CE
:10011400FA227818EF2FFFEE33FEED33FDEC33FCBB
:10012400C933C910D7059BE99A4007EC9BFCE99AAF
:10013400F90FD8E0E4C9FAE4CCFB2275F010EF2FF4
:10014400FFEE33FEED33FDCC33CCC833C810D707F4
:100154009BEC9AE899400AED9BFDEC9AFCE899F82F
:0E0164000FD5F0DAE4CDFBE4CCFAE4C8F922C2
:00000001FF
